{
  "contractName": "DecentralBank",
  "abi": [
    {
      "inputs": [
        {
          "internalType": "contract RWD",
          "name": "_rwd",
          "type": "address"
        },
        {
          "internalType": "contract Tether",
          "name": "_tether",
          "type": "address"
        }
      ],
      "stateMutability": "nonpayable",
      "type": "constructor"
    },
    {
      "inputs": [
        {
          "internalType": "address",
          "name": "",
          "type": "address"
        }
      ],
      "name": "hasStaked",
      "outputs": [
        {
          "internalType": "bool",
          "name": "",
          "type": "bool"
        }
      ],
      "stateMutability": "view",
      "type": "function"
    },
    {
      "inputs": [
        {
          "internalType": "address",
          "name": "",
          "type": "address"
        }
      ],
      "name": "isStaked",
      "outputs": [
        {
          "internalType": "bool",
          "name": "",
          "type": "bool"
        }
      ],
      "stateMutability": "view",
      "type": "function"
    },
    {
      "inputs": [],
      "name": "name",
      "outputs": [
        {
          "internalType": "string",
          "name": "",
          "type": "string"
        }
      ],
      "stateMutability": "view",
      "type": "function"
    },
    {
      "inputs": [],
      "name": "owner",
      "outputs": [
        {
          "internalType": "address",
          "name": "",
          "type": "address"
        }
      ],
      "stateMutability": "view",
      "type": "function"
    },
    {
      "inputs": [],
      "name": "rwd",
      "outputs": [
        {
          "internalType": "contract RWD",
          "name": "",
          "type": "address"
        }
      ],
      "stateMutability": "view",
      "type": "function"
    },
    {
      "inputs": [
        {
          "internalType": "uint256",
          "name": "",
          "type": "uint256"
        }
      ],
      "name": "stakers",
      "outputs": [
        {
          "internalType": "address",
          "name": "",
          "type": "address"
        }
      ],
      "stateMutability": "view",
      "type": "function"
    },
    {
      "inputs": [
        {
          "internalType": "address",
          "name": "",
          "type": "address"
        }
      ],
      "name": "stakingBalance",
      "outputs": [
        {
          "internalType": "uint256",
          "name": "",
          "type": "uint256"
        }
      ],
      "stateMutability": "view",
      "type": "function"
    },
    {
      "inputs": [],
      "name": "tether",
      "outputs": [
        {
          "internalType": "contract Tether",
          "name": "",
          "type": "address"
        }
      ],
      "stateMutability": "view",
      "type": "function"
    },
    {
      "inputs": [
        {
          "internalType": "uint256",
          "name": "_amount",
          "type": "uint256"
        }
      ],
      "name": "depositTokens",
      "outputs": [],
      "stateMutability": "nonpayable",
      "type": "function"
    }
  ],
  "bytecode": "0x60806040526040518060400160405280600d81526020017f446563656e7472616c42616e6b000000000000000000000000000000000000008152505f908162000049919062000368565b5034801562000056575f80fd5b5060405162000ffc38038062000ffc83398181016040528101906200007c919062000506565b8160035f6101000a81548173ffffffffffffffffffffffffffffffffffffffff021916908373ffffffffffffffffffffffffffffffffffffffff1602179055508060025f6101000a81548173ffffffffffffffffffffffffffffffffffffffff021916908373ffffffffffffffffffffffffffffffffffffffff16021790555050506200054b565b5f81519050919050565b7f4e487b71000000000000000000000000000000000000000000000000000000005f52604160045260245ffd5b7f4e487b71000000000000000000000000000000000000000000000000000000005f52602260045260245ffd5b5f60028204905060018216806200018057607f821691505b6020821081036200019657620001956200013b565b5b50919050565b5f819050815f5260205f209050919050565b5f6020601f8301049050919050565b5f82821b905092915050565b5f60088302620001fa7fffffffffffffffffffffffffffffffffffffffffffffffffffffffffffffffff82620001bd565b620002068683620001bd565b95508019841693508086168417925050509392505050565b5f819050919050565b5f819050919050565b5f620002506200024a62000244846200021e565b62000227565b6200021e565b9050919050565b5f819050919050565b6200026b8362000230565b620002836200027a8262000257565b848454620001c9565b825550505050565b5f90565b620002996200028b565b620002a681848462000260565b505050565b5b81811015620002cd57620002c15f826200028f565b600181019050620002ac565b5050565b601f8211156200031c57620002e6816200019c565b620002f184620001ae565b8101602085101562000301578190505b620003196200031085620001ae565b830182620002ab565b50505b505050565b5f82821c905092915050565b5f6200033e5f198460080262000321565b1980831691505092915050565b5f6200035883836200032d565b9150826002028217905092915050565b620003738262000104565b67ffffffffffffffff8111156200038f576200038e6200010e565b5b6200039b825462000168565b620003a8828285620002d1565b5f60209050601f831160018114620003de575f8415620003c9578287015190505b620003d585826200034b565b86555062000444565b601f198416620003ee866200019c565b5f5b828110156200041757848901518255600182019150602085019450602081019050620003f0565b8683101562000437578489015162000433601f8916826200032d565b8355505b6001600288020188555050505b505050505050565b5f80fd5b5f73ffffffffffffffffffffffffffffffffffffffff82169050919050565b5f6200047b8262000450565b9050919050565b5f6200048e826200046f565b9050919050565b620004a08162000482565b8114620004ab575f80fd5b50565b5f81519050620004be8162000495565b92915050565b5f620004d0826200046f565b9050919050565b620004e281620004c4565b8114620004ed575f80fd5b50565b5f815190506200050081620004d7565b92915050565b5f80604083850312156200051f576200051e6200044c565b5b5f6200052e85828601620004ae565b92505060206200054185828601620004f0565b9150509250929050565b610aa380620005595f395ff3fe608060405234801561000f575f80fd5b5060043610610091575f3560e01c80636177fd18116100645780636177fd181461011f5780638da5cb5b1461014f578063c93c8f341461016d578063dd49756e1461019d578063fd5e6dd1146101b957610091565b806306fdde03146100955780631a8972d3146100b357806345bc78ab146100d15780635efc071a14610101575b5f80fd5b61009d6101e9565b6040516100aa9190610687565b60405180910390f35b6100bb610274565b6040516100c89190610721565b60405180910390f35b6100eb60048036038101906100e69190610779565b610299565b6040516100f891906107bc565b60405180910390f35b6101096102ae565b60405161011691906107f5565b60405180910390f35b61013960048036038101906101349190610779565b6102d3565b6040516101469190610828565b60405180910390f35b6101576102f0565b6040516101649190610850565b60405180910390f35b61018760048036038101906101829190610779565b610315565b6040516101949190610828565b60405180910390f35b6101b760048036038101906101b29190610893565b610332565b005b6101d360048036038101906101ce9190610893565b6105c2565b6040516101e09190610850565b60405180910390f35b5f80546101f5906108eb565b80601f0160208091040260200160405190810160405280929190818152602001828054610221906108eb565b801561026c5780601f106102435761010080835404028352916020019161026c565b820191905f5260205f20905b81548152906001019060200180831161024f57829003601f168201915b505050505081565b60035f9054906101000a900473ffffffffffffffffffffffffffffffffffffffff1681565b6005602052805f5260405f205f915090505481565b60025f9054906101000a900473ffffffffffffffffffffffffffffffffffffffff1681565b6007602052805f5260405f205f915054906101000a900460ff1681565b60015f9054906101000a900473ffffffffffffffffffffffffffffffffffffffff1681565b6006602052805f5260405f205f915054906101000a900460ff1681565b5f8111610374576040517f08c379a000000000000000000000000000000000000000000000000000000000815260040161036b90610965565b60405180910390fd5b60025f9054906101000a900473ffffffffffffffffffffffffffffffffffffffff1673ffffffffffffffffffffffffffffffffffffffff166323b872dd3330846040518463ffffffff1660e01b81526004016103d293929190610983565b6020604051808303815f875af11580156103ee573d5f803e3d5ffd5b505050506040513d601f19601f8201168201806040525081019061041291906109e2565b508060055f3373ffffffffffffffffffffffffffffffffffffffff1673ffffffffffffffffffffffffffffffffffffffff1681526020019081526020015f205f82825461045f9190610a3a565b9250508190555060065f3373ffffffffffffffffffffffffffffffffffffffff1673ffffffffffffffffffffffffffffffffffffffff1681526020019081526020015f205f9054906101000a900460ff1661051557600433908060018154018082558091505060019003905f5260205f20015f9091909190916101000a81548173ffffffffffffffffffffffffffffffffffffffff021916908373ffffffffffffffffffffffffffffffffffffffff1602179055505b600160075f3373ffffffffffffffffffffffffffffffffffffffff1673ffffffffffffffffffffffffffffffffffffffff1681526020019081526020015f205f6101000a81548160ff021916908315150217905550600160065f3373ffffffffffffffffffffffffffffffffffffffff1673ffffffffffffffffffffffffffffffffffffffff1681526020019081526020015f205f6101000a81548160ff02191690831515021790555050565b600481815481106105d1575f80fd5b905f5260205f20015f915054906101000a900473ffffffffffffffffffffffffffffffffffffffff1681565b5f81519050919050565b5f82825260208201905092915050565b5f5b83811015610634578082015181840152602081019050610619565b5f8484015250505050565b5f601f19601f8301169050919050565b5f610659826105fd565b6106638185610607565b9350610673818560208601610617565b61067c8161063f565b840191505092915050565b5f6020820190508181035f83015261069f818461064f565b905092915050565b5f73ffffffffffffffffffffffffffffffffffffffff82169050919050565b5f819050919050565b5f6106e96106e46106df846106a7565b6106c6565b6106a7565b9050919050565b5f6106fa826106cf565b9050919050565b5f61070b826106f0565b9050919050565b61071b81610701565b82525050565b5f6020820190506107345f830184610712565b92915050565b5f80fd5b5f610748826106a7565b9050919050565b6107588161073e565b8114610762575f80fd5b50565b5f813590506107738161074f565b92915050565b5f6020828403121561078e5761078d61073a565b5b5f61079b84828501610765565b91505092915050565b5f819050919050565b6107b6816107a4565b82525050565b5f6020820190506107cf5f8301846107ad565b92915050565b5f6107df826106f0565b9050919050565b6107ef816107d5565b82525050565b5f6020820190506108085f8301846107e6565b92915050565b5f8115159050919050565b6108228161080e565b82525050565b5f60208201905061083b5f830184610819565b92915050565b61084a8161073e565b82525050565b5f6020820190506108635f830184610841565b92915050565b610872816107a4565b811461087c575f80fd5b50565b5f8135905061088d81610869565b92915050565b5f602082840312156108a8576108a761073a565b5b5f6108b58482850161087f565b91505092915050565b7f4e487b71000000000000000000000000000000000000000000000000000000005f52602260045260245ffd5b5f600282049050600182168061090257607f821691505b602082108103610915576109146108be565b5b50919050565b7f616d6f756e74206d7573742062652067726561746572207468616e20300000005f82015250565b5f61094f601d83610607565b915061095a8261091b565b602082019050919050565b5f6020820190508181035f83015261097c81610943565b9050919050565b5f6060820190506109965f830186610841565b6109a36020830185610841565b6109b060408301846107ad565b949350505050565b6109c18161080e565b81146109cb575f80fd5b50565b5f815190506109dc816109b8565b92915050565b5f602082840312156109f7576109f661073a565b5b5f610a04848285016109ce565b91505092915050565b7f4e487b71000000000000000000000000000000000000000000000000000000005f52601160045260245ffd5b5f610a44826107a4565b9150610a4f836107a4565b9250828201905080821115610a6757610a66610a0d565b5b9291505056fea2646970667358221220f8bb78d3622e299feaea2f3044410ad1832074c0d34485adca8a5986d75609d264736f6c63430008160033",
  "immutableReferences": {},
  "source": "// SPDX-License-Identifier: MIT\npragma solidity ^0.8.6;\nimport \"./RWD.sol\";\nimport \"./Tether.sol\";\n\ncontract DecentralBank {\n    string public name = \"DecentralBank\";\n    address public owner ;\n    Tether public tether ;\n    RWD public rwd ;\n    \n    address[] public stakers;\n\n    mapping (address => uint) public stakingBalance;\n    mapping (address => bool) public hasStaked;\n    mapping (address => bool) public isStaked;\n\n\n    constructor(RWD _rwd, Tether _tether){\n        rwd = _rwd;\n        tether = _tether;\n\n    }\n\n    function depositTokens(uint _amount)  public {\n\n        require(_amount > 0 , \"amount must be greater than 0\");\n\n        //transfer tether tokens to this contract address for statking\n        tether.transferFrom(msg.sender, address(this), _amount);\n\n        //update the stakingBalance\n        stakingBalance[msg.sender] += _amount;\n          \n        if(!hasStaked[msg.sender]){\n            stakers.push(msg.sender);\n        }\n\n        isStaked[msg.sender] = true;\n        hasStaked[msg.sender] = true;\n    }\n   \n}",
  "sourcePath": "/workspace/defi-staking-app-starter/defi-staking-app-starter/src/contracts/DecentralBank.sol",
  "compiler": {
    "name": "solc",
    "version": "0.8.22+commit.4fc1097e.Emscripten.clang"
  },
  "schemaVersion": "3.4.16",
  "updatedAt": "2023-11-03T07:28:39.449Z",
  "devdoc": {
    "kind": "dev",
    "methods": {},
    "version": 1
  },
  "userdoc": {
    "kind": "user",
    "methods": {},
    "version": 1
  }
}