{
  "contractName": "DecentralBank",
  "abi": [
    {
      "inputs": [
        {
          "internalType": "contract RWD",
          "name": "_rwd",
          "type": "address"
        },
        {
          "internalType": "contract Tether",
          "name": "_tether",
          "type": "address"
        }
      ],
      "stateMutability": "nonpayable",
      "type": "constructor"
    },
    {
      "inputs": [],
      "name": "name",
      "outputs": [
        {
          "internalType": "string",
          "name": "",
          "type": "string"
        }
      ],
      "stateMutability": "view",
      "type": "function",
      "constant": true
    },
    {
      "inputs": [],
      "name": "owner",
      "outputs": [
        {
          "internalType": "address",
          "name": "",
          "type": "address"
        }
      ],
      "stateMutability": "view",
      "type": "function",
      "constant": true
    },
    {
      "inputs": [],
      "name": "rwd",
      "outputs": [
        {
          "internalType": "contract RWD",
          "name": "",
          "type": "address"
        }
      ],
      "stateMutability": "view",
      "type": "function",
      "constant": true
    },
    {
      "inputs": [],
      "name": "tether",
      "outputs": [
        {
          "internalType": "contract Tether",
          "name": "",
          "type": "address"
        }
      ],
      "stateMutability": "view",
      "type": "function",
      "constant": true
    }
  ],
  "bytecode": "0x60806040526040518060400160405280600d81526020017f446563656e7472616c42616e6b000000000000000000000000000000000000008152505f908162000049919062000368565b5034801562000056575f80fd5b506040516200095b3803806200095b83398181016040528101906200007c919062000506565b8160035f6101000a81548173ffffffffffffffffffffffffffffffffffffffff021916908373ffffffffffffffffffffffffffffffffffffffff1602179055508060025f6101000a81548173ffffffffffffffffffffffffffffffffffffffff021916908373ffffffffffffffffffffffffffffffffffffffff16021790555050506200054b565b5f81519050919050565b7f4e487b71000000000000000000000000000000000000000000000000000000005f52604160045260245ffd5b7f4e487b71000000000000000000000000000000000000000000000000000000005f52602260045260245ffd5b5f60028204905060018216806200018057607f821691505b6020821081036200019657620001956200013b565b5b50919050565b5f819050815f5260205f209050919050565b5f6020601f8301049050919050565b5f82821b905092915050565b5f60088302620001fa7fffffffffffffffffffffffffffffffffffffffffffffffffffffffffffffffff82620001bd565b620002068683620001bd565b95508019841693508086168417925050509392505050565b5f819050919050565b5f819050919050565b5f620002506200024a62000244846200021e565b62000227565b6200021e565b9050919050565b5f819050919050565b6200026b8362000230565b620002836200027a8262000257565b848454620001c9565b825550505050565b5f90565b620002996200028b565b620002a681848462000260565b505050565b5b81811015620002cd57620002c15f826200028f565b600181019050620002ac565b5050565b601f8211156200031c57620002e6816200019c565b620002f184620001ae565b8101602085101562000301578190505b620003196200031085620001ae565b830182620002ab565b50505b505050565b5f82821c905092915050565b5f6200033e5f198460080262000321565b1980831691505092915050565b5f6200035883836200032d565b9150826002028217905092915050565b620003738262000104565b67ffffffffffffffff8111156200038f576200038e6200010e565b5b6200039b825462000168565b620003a8828285620002d1565b5f60209050601f831160018114620003de575f8415620003c9578287015190505b620003d585826200034b565b86555062000444565b601f198416620003ee866200019c565b5f5b828110156200041757848901518255600182019150602085019450602081019050620003f0565b8683101562000437578489015162000433601f8916826200032d565b8355505b6001600288020188555050505b505050505050565b5f80fd5b5f73ffffffffffffffffffffffffffffffffffffffff82169050919050565b5f6200047b8262000450565b9050919050565b5f6200048e826200046f565b9050919050565b620004a08162000482565b8114620004ab575f80fd5b50565b5f81519050620004be8162000495565b92915050565b5f620004d0826200046f565b9050919050565b620004e281620004c4565b8114620004ed575f80fd5b50565b5f815190506200050081620004d7565b92915050565b5f80604083850312156200051f576200051e6200044c565b5b5f6200052e85828601620004ae565b92505060206200054185828601620004f0565b9150509250929050565b61040280620005595f395ff3fe608060405234801561000f575f80fd5b506004361061004a575f3560e01c806306fdde031461004e5780631a8972d31461006c5780635efc071a1461008a5780638da5cb5b146100a8575b5f80fd5b6100566100c6565b604051610063919061024a565b60405180910390f35b610074610151565b60405161008191906102e4565b60405180910390f35b610092610176565b60405161009f919061031d565b60405180910390f35b6100b061019b565b6040516100bd9190610356565b60405180910390f35b5f80546100d29061039c565b80601f01602080910402602001604051908101604052809291908181526020018280546100fe9061039c565b80156101495780601f1061012057610100808354040283529160200191610149565b820191905f5260205f20905b81548152906001019060200180831161012c57829003601f168201915b505050505081565b60035f9054906101000a900473ffffffffffffffffffffffffffffffffffffffff1681565b60025f9054906101000a900473ffffffffffffffffffffffffffffffffffffffff1681565b60015f9054906101000a900473ffffffffffffffffffffffffffffffffffffffff1681565b5f81519050919050565b5f82825260208201905092915050565b5f5b838110156101f75780820151818401526020810190506101dc565b5f8484015250505050565b5f601f19601f8301169050919050565b5f61021c826101c0565b61022681856101ca565b93506102368185602086016101da565b61023f81610202565b840191505092915050565b5f6020820190508181035f8301526102628184610212565b905092915050565b5f73ffffffffffffffffffffffffffffffffffffffff82169050919050565b5f819050919050565b5f6102ac6102a76102a28461026a565b610289565b61026a565b9050919050565b5f6102bd82610292565b9050919050565b5f6102ce826102b3565b9050919050565b6102de816102c4565b82525050565b5f6020820190506102f75f8301846102d5565b92915050565b5f610307826102b3565b9050919050565b610317816102fd565b82525050565b5f6020820190506103305f83018461030e565b92915050565b5f6103408261026a565b9050919050565b61035081610336565b82525050565b5f6020820190506103695f830184610347565b92915050565b7f4e487b71000000000000000000000000000000000000000000000000000000005f52602260045260245ffd5b5f60028204905060018216806103b357607f821691505b6020821081036103c6576103c561036f565b5b5091905056fea2646970667358221220c4d2a1188df6185fdd4cb22df3ea9514a9ad38b83190a61d41d718cd3bcf510e64736f6c63430008160033",
  "immutableReferences": {},
  "source": "// SPDX-License-Identifier: MIT\npragma solidity ^0.8.6;\nimport \"./RWD.sol\";\nimport \"./Tether.sol\";\n\ncontract DecentralBank {\n    string public name = \"DecentralBank\";\n    address public owner ;\n    Tether public tether ;\n    RWD public rwd ;\n\n    constructor(RWD _rwd, Tether _tether){\n        rwd = _rwd;\n        tether = _tether;\n\n    }\n   \n}",
  "sourcePath": "/workspace/defi-staking-app-starter/defi-staking-app-starter/src/contracts/DecentralBank.sol",
  "compiler": {
    "name": "solc",
    "version": "0.8.22+commit.4fc1097e.Emscripten.clang"
  },
  "schemaVersion": "3.4.16",
  "updatedAt": "2023-11-02T08:10:52.760Z",
  "networkType": "ethereum",
  "devdoc": {
    "kind": "dev",
    "methods": {},
    "version": 1
  },
  "userdoc": {
    "kind": "user",
    "methods": {},
    "version": 1
  }
}