{
  "contractName": "DecentralBank",
  "abi": [
    {
      "inputs": [
        {
          "internalType": "contract RWD",
          "name": "_rwd",
          "type": "address"
        },
        {
          "internalType": "contract Tether",
          "name": "_tether",
          "type": "address"
        }
      ],
      "stateMutability": "payable",
      "type": "constructor"
    },
    {
      "inputs": [
        {
          "internalType": "address",
          "name": "",
          "type": "address"
        }
      ],
      "name": "hasStaked",
      "outputs": [
        {
          "internalType": "bool",
          "name": "",
          "type": "bool"
        }
      ],
      "stateMutability": "view",
      "type": "function"
    },
    {
      "inputs": [
        {
          "internalType": "address",
          "name": "",
          "type": "address"
        }
      ],
      "name": "isStaking",
      "outputs": [
        {
          "internalType": "bool",
          "name": "",
          "type": "bool"
        }
      ],
      "stateMutability": "view",
      "type": "function"
    },
    {
      "inputs": [],
      "name": "name",
      "outputs": [
        {
          "internalType": "string",
          "name": "",
          "type": "string"
        }
      ],
      "stateMutability": "view",
      "type": "function"
    },
    {
      "inputs": [],
      "name": "owner",
      "outputs": [
        {
          "internalType": "address",
          "name": "",
          "type": "address"
        }
      ],
      "stateMutability": "view",
      "type": "function"
    },
    {
      "inputs": [],
      "name": "rwd",
      "outputs": [
        {
          "internalType": "contract RWD",
          "name": "",
          "type": "address"
        }
      ],
      "stateMutability": "view",
      "type": "function"
    },
    {
      "inputs": [
        {
          "internalType": "uint256",
          "name": "",
          "type": "uint256"
        }
      ],
      "name": "stakers",
      "outputs": [
        {
          "internalType": "address",
          "name": "",
          "type": "address"
        }
      ],
      "stateMutability": "view",
      "type": "function"
    },
    {
      "inputs": [
        {
          "internalType": "address",
          "name": "",
          "type": "address"
        }
      ],
      "name": "stakingBalance",
      "outputs": [
        {
          "internalType": "uint256",
          "name": "",
          "type": "uint256"
        }
      ],
      "stateMutability": "view",
      "type": "function"
    },
    {
      "inputs": [],
      "name": "tether",
      "outputs": [
        {
          "internalType": "contract Tether",
          "name": "",
          "type": "address"
        }
      ],
      "stateMutability": "view",
      "type": "function"
    },
    {
      "inputs": [],
      "name": "totalStaked",
      "outputs": [
        {
          "internalType": "uint256",
          "name": "",
          "type": "uint256"
        }
      ],
      "stateMutability": "view",
      "type": "function"
    },
    {
      "inputs": [
        {
          "internalType": "uint256",
          "name": "_amount",
          "type": "uint256"
        }
      ],
      "name": "depositTokens",
      "outputs": [],
      "stateMutability": "nonpayable",
      "type": "function"
    },
    {
      "inputs": [],
      "name": "unstakeTokens",
      "outputs": [],
      "stateMutability": "nonpayable",
      "type": "function"
    },
    {
      "inputs": [],
      "name": "issueTokens",
      "outputs": [],
      "stateMutability": "nonpayable",
      "type": "function"
    },
    {
      "inputs": [],
      "name": "claimTokens",
      "outputs": [],
      "stateMutability": "nonpayable",
      "type": "function"
    }
  ],
  "bytecode": "0x60806040526040518060400160405280600e81526020017f446563656e7472616c2042616e6b0000000000000000000000000000000000008152505f90816200004991906200039b565b50604051620016373803806200163783398181016040528101906200006f919062000539565b8160035f6101000a81548173ffffffffffffffffffffffffffffffffffffffff021916908373ffffffffffffffffffffffffffffffffffffffff1602179055508060025f6101000a81548173ffffffffffffffffffffffffffffffffffffffff021916908373ffffffffffffffffffffffffffffffffffffffff1602179055503360015f6101000a81548173ffffffffffffffffffffffffffffffffffffffff021916908373ffffffffffffffffffffffffffffffffffffffff16021790555050506200057e565b5f81519050919050565b7f4e487b71000000000000000000000000000000000000000000000000000000005f52604160045260245ffd5b7f4e487b71000000000000000000000000000000000000000000000000000000005f52602260045260245ffd5b5f6002820490506001821680620001b357607f821691505b602082108103620001c957620001c86200016e565b5b50919050565b5f819050815f5260205f209050919050565b5f6020601f8301049050919050565b5f82821b905092915050565b5f600883026200022d7fffffffffffffffffffffffffffffffffffffffffffffffffffffffffffffffff82620001f0565b620002398683620001f0565b95508019841693508086168417925050509392505050565b5f819050919050565b5f819050919050565b5f620002836200027d620002778462000251565b6200025a565b62000251565b9050919050565b5f819050919050565b6200029e8362000263565b620002b6620002ad826200028a565b848454620001fc565b825550505050565b5f90565b620002cc620002be565b620002d981848462000293565b505050565b5b818110156200030057620002f45f82620002c2565b600181019050620002df565b5050565b601f8211156200034f576200031981620001cf565b6200032484620001e1565b8101602085101562000334578190505b6200034c6200034385620001e1565b830182620002de565b50505b505050565b5f82821c905092915050565b5f620003715f198460080262000354565b1980831691505092915050565b5f6200038b838362000360565b9150826002028217905092915050565b620003a68262000137565b67ffffffffffffffff811115620003c257620003c162000141565b5b620003ce82546200019b565b620003db82828562000304565b5f60209050601f83116001811462000411575f8415620003fc578287015190505b6200040885826200037e565b86555062000477565b601f1984166200042186620001cf565b5f5b828110156200044a5784890151825560018201915060208501945060208101905062000423565b868310156200046a578489015162000466601f89168262000360565b8355505b6001600288020188555050505b505050505050565b5f80fd5b5f73ffffffffffffffffffffffffffffffffffffffff82169050919050565b5f620004ae8262000483565b9050919050565b5f620004c182620004a2565b9050919050565b620004d381620004b5565b8114620004de575f80fd5b50565b5f81519050620004f181620004c8565b92915050565b5f6200050382620004a2565b9050919050565b6200051581620004f7565b811462000520575f80fd5b50565b5f8151905062000533816200050a565b92915050565b5f80604083850312156200055257620005516200047f565b5b5f6200056185828601620004e1565b9250506020620005748582860162000523565b9150509250929050565b6110ab806200058c5f395ff3fe608060405234801561000f575f80fd5b50600436106100cd575f3560e01c80636f49712b1161008a578063a5ce413b11610064578063a5ce413b146101db578063c93c8f34146101e5578063dd49756e14610215578063fd5e6dd114610231576100cd565b80636f49712b1461016f578063817b1cd21461019f5780638da5cb5b146101bd576100cd565b806306fdde03146100d15780631a8972d3146100ef57806345bc78ab1461010d57806348c54b9d1461013d5780635efc071a1461014757806360ab585214610165575b5f80fd5b6100d9610261565b6040516100e69190610b1d565b60405180910390f35b6100f76102ec565b6040516101049190610bb7565b60405180910390f35b61012760048036038101906101229190610c0f565b610311565b6040516101349190610c52565b60405180910390f35b610145610326565b005b61014f6103d3565b60405161015c9190610c8b565b60405180910390f35b61016d6103f8565b005b61018960048036038101906101849190610c0f565b61054b565b6040516101969190610cbe565b60405180910390f35b6101a7610568565b6040516101b49190610c52565b60405180910390f35b6101c561056e565b6040516101d29190610ce6565b60405180910390f35b6101e3610593565b005b6101ff60048036038101906101fa9190610c0f565b610760565b60405161020c9190610cbe565b60405180910390f35b61022f600480360381019061022a9190610d29565b61077d565b005b61024b60048036038101906102469190610d29565b610a58565b6040516102589190610ce6565b60405180910390f35b5f805461026d90610d81565b80601f016020809104026020016040519081016040528092919081815260200182805461029990610d81565b80156102e45780601f106102bb576101008083540402835291602001916102e4565b820191905f5260205f20905b8154815290600101906020018083116102c757829003601f168201915b505050505081565b60035f9054906101000a900473ffffffffffffffffffffffffffffffffffffffff1681565b6006602052805f5260405f205f915090505481565b5f6802b5e3af16b1880000905060025f9054906101000a900473ffffffffffffffffffffffffffffffffffffffff1673ffffffffffffffffffffffffffffffffffffffff1663a9059cbb33836040518363ffffffff1660e01b815260040161038f929190610db1565b6020604051808303815f875af11580156103ab573d5f803e3d5ffd5b505050506040513d601f19601f820116820180604052508101906103cf9190610e02565b5050565b60025f9054906101000a900473ffffffffffffffffffffffffffffffffffffffff1681565b5f5b600580549050811015610548575f6005828154811061041c5761041b610e2d565b5b905f5260205f20015f9054906101000a900473ffffffffffffffffffffffffffffffffffffffff1690505f600560065f8473ffffffffffffffffffffffffffffffffffffffff1673ffffffffffffffffffffffffffffffffffffffff1681526020019081526020015f20546104919190610eb4565b90505f8111156105395760035f9054906101000a900473ffffffffffffffffffffffffffffffffffffffff1673ffffffffffffffffffffffffffffffffffffffff1663a9059cbb83836040518363ffffffff1660e01b81526004016104f7929190610db1565b6020604051808303815f875af1158015610513573d5f803e3d5ffd5b505050506040513d601f19601f820116820180604052508101906105379190610e02565b505b505080806001019150506103fa565b50565b6008602052805f5260405f205f915054906101000a900460ff1681565b60045481565b60015f9054906101000a900473ffffffffffffffffffffffffffffffffffffffff1681565b5f60065f3373ffffffffffffffffffffffffffffffffffffffff1673ffffffffffffffffffffffffffffffffffffffff1681526020019081526020015f205490505f8111610616576040517f08c379a000000000000000000000000000000000000000000000000000000000815260040161060d90610f54565b60405180910390fd5b60025f9054906101000a900473ffffffffffffffffffffffffffffffffffffffff1673ffffffffffffffffffffffffffffffffffffffff1663a9059cbb33836040518363ffffffff1660e01b8152600401610672929190610db1565b6020604051808303815f875af115801561068e573d5f803e3d5ffd5b505050506040513d601f19601f820116820180604052508101906106b29190610e02565b50806004546106c19190610f72565b6004819055505f60065f3373ffffffffffffffffffffffffffffffffffffffff1673ffffffffffffffffffffffffffffffffffffffff1681526020019081526020015f20819055505f60085f3373ffffffffffffffffffffffffffffffffffffffff1673ffffffffffffffffffffffffffffffffffffffff1681526020019081526020015f205f6101000a81548160ff02191690831515021790555050565b6007602052805f5260405f205f915054906101000a900460ff1681565b5f81116107bf576040517f08c379a00000000000000000000000000000000000000000000000000000000081526004016107b690610fef565b60405180910390fd5b60025f9054906101000a900473ffffffffffffffffffffffffffffffffffffffff1673ffffffffffffffffffffffffffffffffffffffff166323b872dd3330846040518463ffffffff1660e01b815260040161081d9392919061100d565b6020604051808303815f875af1158015610839573d5f803e3d5ffd5b505050506040513d601f19601f8201168201806040525081019061085d9190610e02565b508060045461086c9190611042565b6004819055508060065f3373ffffffffffffffffffffffffffffffffffffffff1673ffffffffffffffffffffffffffffffffffffffff1681526020019081526020015f20546108bb9190611042565b60065f3373ffffffffffffffffffffffffffffffffffffffff1673ffffffffffffffffffffffffffffffffffffffff1681526020019081526020015f208190555060075f3373ffffffffffffffffffffffffffffffffffffffff1673ffffffffffffffffffffffffffffffffffffffff1681526020019081526020015f205f9054906101000a900460ff166109ab57600533908060018154018082558091505060019003905f5260205f20015f9091909190916101000a81548173ffffffffffffffffffffffffffffffffffffffff021916908373ffffffffffffffffffffffffffffffffffffffff1602179055505b600160085f3373ffffffffffffffffffffffffffffffffffffffff1673ffffffffffffffffffffffffffffffffffffffff1681526020019081526020015f205f6101000a81548160ff021916908315150217905550600160075f3373ffffffffffffffffffffffffffffffffffffffff1673ffffffffffffffffffffffffffffffffffffffff1681526020019081526020015f205f6101000a81548160ff02191690831515021790555050565b60058181548110610a67575f80fd5b905f5260205f20015f915054906101000a900473ffffffffffffffffffffffffffffffffffffffff1681565b5f81519050919050565b5f82825260208201905092915050565b5f5b83811015610aca578082015181840152602081019050610aaf565b5f8484015250505050565b5f601f19601f8301169050919050565b5f610aef82610a93565b610af98185610a9d565b9350610b09818560208601610aad565b610b1281610ad5565b840191505092915050565b5f6020820190508181035f830152610b358184610ae5565b905092915050565b5f73ffffffffffffffffffffffffffffffffffffffff82169050919050565b5f819050919050565b5f610b7f610b7a610b7584610b3d565b610b5c565b610b3d565b9050919050565b5f610b9082610b65565b9050919050565b5f610ba182610b86565b9050919050565b610bb181610b97565b82525050565b5f602082019050610bca5f830184610ba8565b92915050565b5f80fd5b5f610bde82610b3d565b9050919050565b610bee81610bd4565b8114610bf8575f80fd5b50565b5f81359050610c0981610be5565b92915050565b5f60208284031215610c2457610c23610bd0565b5b5f610c3184828501610bfb565b91505092915050565b5f819050919050565b610c4c81610c3a565b82525050565b5f602082019050610c655f830184610c43565b92915050565b5f610c7582610b86565b9050919050565b610c8581610c6b565b82525050565b5f602082019050610c9e5f830184610c7c565b92915050565b5f8115159050919050565b610cb881610ca4565b82525050565b5f602082019050610cd15f830184610caf565b92915050565b610ce081610bd4565b82525050565b5f602082019050610cf95f830184610cd7565b92915050565b610d0881610c3a565b8114610d12575f80fd5b50565b5f81359050610d2381610cff565b92915050565b5f60208284031215610d3e57610d3d610bd0565b5b5f610d4b84828501610d15565b91505092915050565b7f4e487b71000000000000000000000000000000000000000000000000000000005f52602260045260245ffd5b5f6002820490506001821680610d9857607f821691505b602082108103610dab57610daa610d54565b5b50919050565b5f604082019050610dc45f830185610cd7565b610dd16020830184610c43565b9392505050565b610de181610ca4565b8114610deb575f80fd5b50565b5f81519050610dfc81610dd8565b92915050565b5f60208284031215610e1757610e16610bd0565b5b5f610e2484828501610dee565b91505092915050565b7f4e487b71000000000000000000000000000000000000000000000000000000005f52603260045260245ffd5b7f4e487b71000000000000000000000000000000000000000000000000000000005f52601260045260245ffd5b7f4e487b71000000000000000000000000000000000000000000000000000000005f52601160045260245ffd5b5f610ebe82610c3a565b9150610ec983610c3a565b925082610ed957610ed8610e5a565b5b828204905092915050565b7f7374616b696e672062616c616e63652063616e6e6f74206265206c65737320745f8201527f68616e207a65726f000000000000000000000000000000000000000000000000602082015250565b5f610f3e602883610a9d565b9150610f4982610ee4565b604082019050919050565b5f6020820190508181035f830152610f6b81610f32565b9050919050565b5f610f7c82610c3a565b9150610f8783610c3a565b9250828203905081811115610f9f57610f9e610e87565b5b92915050565b7f5374616b696e6720616d6f756e742063616e6e6f7420626520300000000000005f82015250565b5f610fd9601a83610a9d565b9150610fe482610fa5565b602082019050919050565b5f6020820190508181035f83015261100681610fcd565b9050919050565b5f6060820190506110205f830186610cd7565b61102d6020830185610cd7565b61103a6040830184610c43565b949350505050565b5f61104c82610c3a565b915061105783610c3a565b925082820190508082111561106f5761106e610e87565b5b9291505056fea2646970667358221220efa7d464eb221d393b151f7fcf890463fe7f241f750f5e38413375751968350d64736f6c63430008160033",
  "immutableReferences": {},
  "source": "// SPDX-License-Identifier: MIT\npragma solidity ^0.8.6;\n// import \"./RWD.sol\";\n// import \"./Tether.sol\";\n\n// contract DecentralBank {\n//     string public name = \"DecentralBank\";\n//     address public owner ;\n//     Tether public tether ;\n//     RWD public rwd ;\n    \n//     address[] public stakers;\n\n//     mapping(address => uint256) public stakingBalance;\n//     mapping(address => bool) public hasStaked;\n//     mapping(address => bool) public isStaked;\n\n\n//     constructor(RWD _rwd, Tether _tether){\n//         rwd = _rwd;\n//         tether = _tether;\n\n//     }\n\n//     function depositTokens(uint _amount)  public {\n\n//         require(_amount > 0 , \"amount must be greater than 0\");\n\n//         //transfer tether tokens to this contract address for statking\n//         tether.transferFrom(msg.sender, address(this), _amount);\n\n//         //update the stakingBalance\n//         stakingBalance[msg.sender] += _amount;\n          \n//         if(!hasStaked[msg.sender]){\n//             stakers.push(msg.sender);\n//         }\n//           //update stakingBalance\n//         isStaked[msg.sender] = true;\n//         hasStaked[msg.sender] = true;\n//     }\n   \n// }\n\n\n\n\n\n\n\n\n\n\n\nimport \"./RWD.sol\";\nimport \"./Tether.sol\";\n\n// Our contract for DecentralBank.\ncontract DecentralBank {\n    string public name = \"Decentral Bank\";\n    address public owner;\n    Tether public tether;\n    RWD public rwd;\n    uint256 public totalStaked;\n\n    // Initialize a stakers array to keep track of them.\n    address[] public stakers;\n\n    // Users staking balance.\n    mapping(address => uint256) public stakingBalance;\n    // mapping list of users who ever staked.\n    mapping(address => bool) public hasStaked;\n    // mapping list of users who are staking at the moment.\n    mapping(address => bool) public isStaking;\n\n    constructor(RWD _rwd, Tether _tether)  payable {\n        rwd = _rwd;\n        tether = _tether;\n        owner = msg.sender;\n    }\n\n    // Staking function with upgraded logic.\n    function depositTokens(uint256 _amount) public {\n        // Require staking amount to be greater than 0.\n        require(_amount > 0, \"Staking amount cannot be 0\");\n\n        // Transfer tether tokens to this contract address for staking.\n        tether.transferFrom(msg.sender, address(this), _amount);\n        totalStaked = totalStaked + _amount;\n\n        // Update Staking Balance.\n        stakingBalance[msg.sender] = stakingBalance[msg.sender] + _amount;\n\n        // If the message sender haven't staked, then we can push our new amount. and update our logic.\n        if (!hasStaked[msg.sender]) {\n            stakers.push(msg.sender);\n        }\n\n        // Update staking balance.\n        isStaking[msg.sender] = true;\n        hasStaked[msg.sender] = true;\n    }\n\n    // unstake tokens\n    function unstakeTokens() public {\n        uint256 balance = stakingBalance[msg.sender];\n        // require the amount to be greater than zero.\n        require(balance > 0, \"staking balance cannot be less than zero\");\n\n        // transfer the tokens to the specified contract address from our bank.\n        tether.transfer(msg.sender, balance);\n        totalStaked = totalStaked - balance;\n\n        // reset staking balance.\n        stakingBalance[msg.sender] = 0;\n\n        // Update Staking Status.\n        isStaking[msg.sender] = false;\n    }\n\n    // issue airdrop reward for stakers.\n    function issueTokens() public {\n        // // Only owner can issue airdrop.\n        // require(msg.sender == owner, \"caller must be the owner\");\n\n        // issue tokens to all stakers.\n        for (uint256 i = 0; i < stakers.length; i++) {\n            // Loop through all the stakers in the array.\n            address recipient = stakers[i]; // Those who have stake go to the recipient address.\n            uint256 balance = stakingBalance[recipient] / 5; // We set a balance equal to 1/5th of the staking balance to create percentage incentive for stakers.\n            if (balance > 0) {\n                rwd.transfer(recipient, balance); // Transfer the balance to the recipient.\n            }\n        }\n    }\n\n    // Issue 1000 USDT for everyone entering the app.\n    function claimTokens() public {\n        // transfer 1000 USDT tokens to the specified contract address from our bank.\n        uint256 starting_balance = 50000000000000000000;\n        tether.transfer(msg.sender, starting_balance);\n    }\n}",
  "sourcePath": "/workspace/defi-staking-app-starter/defi-staking-app-starter/src/contracts/DecentralBank.sol",
  "compiler": {
    "name": "solc",
    "version": "0.8.22+commit.4fc1097e.Emscripten.clang"
  },
  "schemaVersion": "3.4.16",
  "updatedAt": "2023-11-04T11:27:54.359Z",
  "devdoc": {
    "kind": "dev",
    "methods": {},
    "version": 1
  },
  "userdoc": {
    "kind": "user",
    "methods": {},
    "version": 1
  }
}