{
  "contractName": "RWD",
  "abi": [
    {
      "inputs": [],
      "stateMutability": "nonpayable",
      "type": "constructor"
    },
    {
      "anonymous": false,
      "inputs": [
        {
          "indexed": true,
          "internalType": "address",
          "name": "_owner",
          "type": "address"
        },
        {
          "indexed": true,
          "internalType": "address",
          "name": "_spender",
          "type": "address"
        },
        {
          "indexed": false,
          "internalType": "uint256",
          "name": "_value",
          "type": "uint256"
        }
      ],
      "name": "Approval",
      "type": "event"
    },
    {
      "anonymous": false,
      "inputs": [
        {
          "indexed": true,
          "internalType": "address",
          "name": "_from",
          "type": "address"
        },
        {
          "indexed": true,
          "internalType": "address",
          "name": "_to",
          "type": "address"
        },
        {
          "indexed": false,
          "internalType": "uint256",
          "name": "_value",
          "type": "uint256"
        }
      ],
      "name": "Transfer",
      "type": "event"
    },
    {
      "inputs": [
        {
          "internalType": "address",
          "name": "",
          "type": "address"
        },
        {
          "internalType": "address",
          "name": "",
          "type": "address"
        }
      ],
      "name": "allowance",
      "outputs": [
        {
          "internalType": "uint256",
          "name": "",
          "type": "uint256"
        }
      ],
      "stateMutability": "view",
      "type": "function"
    },
    {
      "inputs": [
        {
          "internalType": "address",
          "name": "",
          "type": "address"
        }
      ],
      "name": "balanceOf",
      "outputs": [
        {
          "internalType": "uint256",
          "name": "",
          "type": "uint256"
        }
      ],
      "stateMutability": "view",
      "type": "function"
    },
    {
      "inputs": [],
      "name": "decimals",
      "outputs": [
        {
          "internalType": "uint8",
          "name": "",
          "type": "uint8"
        }
      ],
      "stateMutability": "view",
      "type": "function"
    },
    {
      "inputs": [],
      "name": "description",
      "outputs": [
        {
          "internalType": "string",
          "name": "",
          "type": "string"
        }
      ],
      "stateMutability": "view",
      "type": "function"
    },
    {
      "inputs": [],
      "name": "name",
      "outputs": [
        {
          "internalType": "string",
          "name": "",
          "type": "string"
        }
      ],
      "stateMutability": "view",
      "type": "function"
    },
    {
      "inputs": [],
      "name": "symbol",
      "outputs": [
        {
          "internalType": "string",
          "name": "",
          "type": "string"
        }
      ],
      "stateMutability": "view",
      "type": "function"
    },
    {
      "inputs": [],
      "name": "totalSupply",
      "outputs": [
        {
          "internalType": "uint256",
          "name": "",
          "type": "uint256"
        }
      ],
      "stateMutability": "view",
      "type": "function"
    },
    {
      "inputs": [
        {
          "internalType": "address",
          "name": "_to",
          "type": "address"
        },
        {
          "internalType": "uint256",
          "name": "_value",
          "type": "uint256"
        }
      ],
      "name": "transfer",
      "outputs": [
        {
          "internalType": "bool",
          "name": "success",
          "type": "bool"
        }
      ],
      "stateMutability": "nonpayable",
      "type": "function"
    },
    {
      "inputs": [
        {
          "internalType": "address",
          "name": "_spender",
          "type": "address"
        },
        {
          "internalType": "uint256",
          "name": "_value",
          "type": "uint256"
        }
      ],
      "name": "approve",
      "outputs": [
        {
          "internalType": "bool",
          "name": "success",
          "type": "bool"
        }
      ],
      "stateMutability": "nonpayable",
      "type": "function"
    },
    {
      "inputs": [
        {
          "internalType": "address",
          "name": "_from",
          "type": "address"
        },
        {
          "internalType": "address",
          "name": "_to",
          "type": "address"
        },
        {
          "internalType": "uint256",
          "name": "_value",
          "type": "uint256"
        }
      ],
      "name": "transferFrom",
      "outputs": [
        {
          "internalType": "bool",
          "name": "success",
          "type": "bool"
        }
      ],
      "stateMutability": "nonpayable",
      "type": "function"
    }
  ],
  "bytecode": "0x60806040526040518060400160405280600c81526020017f52657761726420546f6b656e00000000000000000000000000000000000000008152505f9081620000499190620003bc565b506040518060400160405280600381526020017f525744000000000000000000000000000000000000000000000000000000000081525060019081620000909190620003bc565b506040518060400160405280601481526020017f546869732069732061207265616c20746f6b656e00000000000000000000000081525060029081620000d79190620003bc565b5069d3c21bcecceda1000000600355601260045f6101000a81548160ff021916908360ff1602179055503480156200010d575f80fd5b5060035460055f3373ffffffffffffffffffffffffffffffffffffffff1673ffffffffffffffffffffffffffffffffffffffff1681526020019081526020015f2081905550620004a0565b5f81519050919050565b7f4e487b71000000000000000000000000000000000000000000000000000000005f52604160045260245ffd5b7f4e487b71000000000000000000000000000000000000000000000000000000005f52602260045260245ffd5b5f6002820490506001821680620001d457607f821691505b602082108103620001ea57620001e96200018f565b5b50919050565b5f819050815f5260205f209050919050565b5f6020601f8301049050919050565b5f82821b905092915050565b5f600883026200024e7fffffffffffffffffffffffffffffffffffffffffffffffffffffffffffffffff8262000211565b6200025a868362000211565b95508019841693508086168417925050509392505050565b5f819050919050565b5f819050919050565b5f620002a46200029e620002988462000272565b6200027b565b62000272565b9050919050565b5f819050919050565b620002bf8362000284565b620002d7620002ce82620002ab565b8484546200021d565b825550505050565b5f90565b620002ed620002df565b620002fa818484620002b4565b505050565b5b818110156200032157620003155f82620002e3565b60018101905062000300565b5050565b601f82111562000370576200033a81620001f0565b620003458462000202565b8101602085101562000355578190505b6200036d620003648562000202565b830182620002ff565b50505b505050565b5f82821c905092915050565b5f620003925f198460080262000375565b1980831691505092915050565b5f620003ac838362000381565b9150826002028217905092915050565b620003c78262000158565b67ffffffffffffffff811115620003e357620003e262000162565b5b620003ef8254620001bc565b620003fc82828562000325565b5f60209050601f83116001811462000432575f84156200041d578287015190505b6200042985826200039f565b86555062000498565b601f1984166200044286620001f0565b5f5b828110156200046b5784890151825560018201915060208501945060208101905062000444565b868310156200048b578489015162000487601f89168262000381565b8355505b6001600288020188555050505b505050505050565b610cbb80620004ae5f395ff3fe608060405234801561000f575f80fd5b506004361061009c575f3560e01c806370a082311161006457806370a082311461015a5780637284e4161461018a57806395d89b41146101a8578063a9059cbb146101c6578063dd62ed3e146101f65761009c565b806306fdde03146100a0578063095ea7b3146100be57806318160ddd146100ee57806323b872dd1461010c578063313ce5671461013c575b5f80fd5b6100a8610226565b6040516100b5919061095e565b60405180910390f35b6100d860048036038101906100d39190610a0f565b6102b1565b6040516100e59190610a67565b60405180910390f35b6100f661039e565b6040516101039190610a8f565b60405180910390f35b61012660048036038101906101219190610aa8565b6103a4565b6040516101339190610a67565b60405180910390f35b610144610616565b6040516101519190610b13565b60405180910390f35b610174600480360381019061016f9190610b2c565b610628565b6040516101819190610a8f565b60405180910390f35b61019261063d565b60405161019f919061095e565b60405180910390f35b6101b06106c9565b6040516101bd919061095e565b60405180910390f35b6101e060048036038101906101db9190610a0f565b610755565b6040516101ed9190610a67565b60405180910390f35b610210600480360381019061020b9190610b57565b6108b4565b60405161021d9190610a8f565b60405180910390f35b5f805461023290610bc2565b80601f016020809104026020016040519081016040528092919081815260200182805461025e90610bc2565b80156102a95780601f10610280576101008083540402835291602001916102a9565b820191905f5260205f20905b81548152906001019060200180831161028c57829003601f168201915b505050505081565b5f8160065f3373ffffffffffffffffffffffffffffffffffffffff1673ffffffffffffffffffffffffffffffffffffffff1681526020019081526020015f205f8573ffffffffffffffffffffffffffffffffffffffff1673ffffffffffffffffffffffffffffffffffffffff1681526020019081526020015f20819055508273ffffffffffffffffffffffffffffffffffffffff163373ffffffffffffffffffffffffffffffffffffffff167f8c5be1e5ebec7d5bd14f71427d1e84f3dd0314c0f7b2291e5b200ac8c7c3b9258460405161038c9190610a8f565b60405180910390a36001905092915050565b60035481565b5f60055f8573ffffffffffffffffffffffffffffffffffffffff1673ffffffffffffffffffffffffffffffffffffffff1681526020019081526020015f20548211156103ee575f80fd5b60065f8573ffffffffffffffffffffffffffffffffffffffff1673ffffffffffffffffffffffffffffffffffffffff1681526020019081526020015f205f3373ffffffffffffffffffffffffffffffffffffffff1673ffffffffffffffffffffffffffffffffffffffff1681526020019081526020015f2054821115610472575f80fd5b8160055f8573ffffffffffffffffffffffffffffffffffffffff1673ffffffffffffffffffffffffffffffffffffffff1681526020019081526020015f205f8282546104be9190610c1f565b925050819055508160055f8673ffffffffffffffffffffffffffffffffffffffff1673ffffffffffffffffffffffffffffffffffffffff1681526020019081526020015f205f8282546105119190610c52565b925050819055508160065f3373ffffffffffffffffffffffffffffffffffffffff1673ffffffffffffffffffffffffffffffffffffffff1681526020019081526020015f205f8673ffffffffffffffffffffffffffffffffffffffff1673ffffffffffffffffffffffffffffffffffffffff1681526020019081526020015f205f82825461059f9190610c52565b925050819055508273ffffffffffffffffffffffffffffffffffffffff168473ffffffffffffffffffffffffffffffffffffffff167fddf252ad1be2c89b69c2b068fc378daa952ba7f163c4a11628f55a4df523b3ef846040516106039190610a8f565b60405180910390a3600190509392505050565b60045f9054906101000a900460ff1681565b6005602052805f5260405f205f915090505481565b6002805461064a90610bc2565b80601f016020809104026020016040519081016040528092919081815260200182805461067690610bc2565b80156106c15780601f10610698576101008083540402835291602001916106c1565b820191905f5260205f20905b8154815290600101906020018083116106a457829003601f168201915b505050505081565b600180546106d690610bc2565b80601f016020809104026020016040519081016040528092919081815260200182805461070290610bc2565b801561074d5780601f106107245761010080835404028352916020019161074d565b820191905f5260205f20905b81548152906001019060200180831161073057829003601f168201915b505050505081565b5f8160055f3373ffffffffffffffffffffffffffffffffffffffff1673ffffffffffffffffffffffffffffffffffffffff1681526020019081526020015f2054101561079f575f80fd5b8160055f3373ffffffffffffffffffffffffffffffffffffffff1673ffffffffffffffffffffffffffffffffffffffff1681526020019081526020015f205f8282546107eb9190610c52565b925050819055508160055f8573ffffffffffffffffffffffffffffffffffffffff1673ffffffffffffffffffffffffffffffffffffffff1681526020019081526020015f205f82825461083e9190610c1f565b925050819055508273ffffffffffffffffffffffffffffffffffffffff163373ffffffffffffffffffffffffffffffffffffffff167fddf252ad1be2c89b69c2b068fc378daa952ba7f163c4a11628f55a4df523b3ef846040516108a29190610a8f565b60405180910390a36001905092915050565b6006602052815f5260405f20602052805f5260405f205f91509150505481565b5f81519050919050565b5f82825260208201905092915050565b5f5b8381101561090b5780820151818401526020810190506108f0565b5f8484015250505050565b5f601f19601f8301169050919050565b5f610930826108d4565b61093a81856108de565b935061094a8185602086016108ee565b61095381610916565b840191505092915050565b5f6020820190508181035f8301526109768184610926565b905092915050565b5f80fd5b5f73ffffffffffffffffffffffffffffffffffffffff82169050919050565b5f6109ab82610982565b9050919050565b6109bb816109a1565b81146109c5575f80fd5b50565b5f813590506109d6816109b2565b92915050565b5f819050919050565b6109ee816109dc565b81146109f8575f80fd5b50565b5f81359050610a09816109e5565b92915050565b5f8060408385031215610a2557610a2461097e565b5b5f610a32858286016109c8565b9250506020610a43858286016109fb565b9150509250929050565b5f8115159050919050565b610a6181610a4d565b82525050565b5f602082019050610a7a5f830184610a58565b92915050565b610a89816109dc565b82525050565b5f602082019050610aa25f830184610a80565b92915050565b5f805f60608486031215610abf57610abe61097e565b5b5f610acc868287016109c8565b9350506020610add868287016109c8565b9250506040610aee868287016109fb565b9150509250925092565b5f60ff82169050919050565b610b0d81610af8565b82525050565b5f602082019050610b265f830184610b04565b92915050565b5f60208284031215610b4157610b4061097e565b5b5f610b4e848285016109c8565b91505092915050565b5f8060408385031215610b6d57610b6c61097e565b5b5f610b7a858286016109c8565b9250506020610b8b858286016109c8565b9150509250929050565b7f4e487b71000000000000000000000000000000000000000000000000000000005f52602260045260245ffd5b5f6002820490506001821680610bd957607f821691505b602082108103610bec57610beb610b95565b5b50919050565b7f4e487b71000000000000000000000000000000000000000000000000000000005f52601160045260245ffd5b5f610c29826109dc565b9150610c34836109dc565b9250828201905080821115610c4c57610c4b610bf2565b5b92915050565b5f610c5c826109dc565b9150610c67836109dc565b9250828203905081811115610c7f57610c7e610bf2565b5b9291505056fea26469706673582212201d336e858091de773cc34996a4d633b7931e8775129cfce244a8df168816e3ea64736f6c63430008160033",
  "immutableReferences": {},
  "source": "// SPDX-License-Identifier: SEE LICENSE IN LICENSE\npragma solidity ^0.8.9;\n\n// contract RWD {\n//     string public name = \"Reward Token\";\n//     string public symbol = \"RWD\";\n//     uint256 public totalSupply = 1000000000000000000000000; // 1 millions tokens\n//     uint256 public decimals = 18;\n\n//     event Transfer(address indexed _from, address indexed _to, uint256 _value);\n\n//     event Approval(\n//         address indexed _owner,\n//         address indexed _spender,\n//         uint256 _value\n//     );\n\n//     mapping(address => uint256) public balanceOf;\n//     mapping(address => mapping(address => uint256)) public allowance;\n\n//     constructor() {\n//         balanceOf[msg.sender] = totalSupply;\n//     }\n\n//     function transfer(\n//         address _to,\n//         uint256 _value\n//     ) public returns (bool success) {\n//         // value must be greater than or equal to the value\n//         require(balanceOf[msg.sender] >= _value);\n//         // transfer the amount and substract the balance\n//         balanceOf[msg.sender] -= _value;\n//         // add the balancd to receiver\n//         balanceOf[_to] += _value;\n\n//         emit Transfer(msg.sender, _to, _value);\n//         return true;\n//     }\n\n//     function approve(\n//         address _spender,\n//         uint256 _value\n//               ) public returns (bool success) {\n//         allowance[msg.sender][_spender] = _value;\n//         emit Approval(msg.sender, _spender, _value);\n//         return true;\n//     }\n\n//     function transferFrom(\n//         address _from,\n//         address _to,\n//         uint256 _value\n//     ) public returns (bool) {\n//         require(_value <= balanceOf[_from]);\n//         require(_value <= allowance[_from][msg.sender]);\n\n//         // add the balancd to receiver\n//         balanceOf[_to] += _value;\n\n//         //transfer the amount and substract the balance\n//         balanceOf[_from] -= _value;\n\n//         allowance[msg.sender][_from] -= _value;\n//         emit Transfer(_from, _to, _value);\n//         return true;\n//     }\n// }\n\n\n\n\n\n\n\n\ncontract RWD {\n    string  public name = \"Reward Token\";\n    string  public symbol = \"RWD\";\n    string public description = 'This is a real token';\n    uint256 public totalSupply = 1000000000000000000000000; // 1 million tokens.\n    uint8   public decimals = 18;\n\n    event Transfer(\n        address indexed _from,\n        address indexed _to, \n        uint _value\n    );\n\n    event Approval(\n        address indexed _owner,\n        address indexed _spender, \n        uint _value\n    );\n\n    mapping(address => uint256) public balanceOf;\n    mapping(address => mapping(address => uint256)) public allowance;\n    \n    constructor() public {\n        balanceOf[msg.sender] = totalSupply;\n    }\n\n    function transfer(address _to, uint256 _value) public returns (bool success) {\n        // require that the value is greater or equal for transfer.\n        require(balanceOf[msg.sender] >= _value);\n         // transfer the amount and subtract the balance.\n        balanceOf[msg.sender] -= _value;\n        // add the balance\n        balanceOf[_to] += _value;\n        emit Transfer(msg.sender, _to, _value);\n        return true;\n    }\n\n    function approve(address _spender, uint256 _value) public returns (bool success) {\n        allowance[msg.sender][_spender] = _value;\n        emit Approval(msg.sender, _spender, _value);\n        return true;\n    }\n\n    function transferFrom(address _from, address _to, uint256 _value) public returns (bool success) {\n        require(_value <= balanceOf[_from]);\n        require(_value <= allowance[_from][msg.sender]);\n        // add the balance for transferFrom.\n        balanceOf[_to] += _value;\n        // subtract the balance for transferFrom.\n        balanceOf[_from] -= _value;\n        allowance[msg.sender][_from] -= _value;\n        emit Transfer(_from, _to, _value);\n        return true;\n    }\n}",
  "sourcePath": "/workspace/defi-staking-app-starter/defi-staking-app-starter/src/contracts/RWD.sol",
  "compiler": {
    "name": "solc",
    "version": "0.8.22+commit.4fc1097e.Emscripten.clang"
  },
  "schemaVersion": "3.4.16",
  "updatedAt": "2023-11-04T11:27:54.366Z",
  "devdoc": {
    "kind": "dev",
    "methods": {},
    "version": 1
  },
  "userdoc": {
    "kind": "user",
    "methods": {},
    "version": 1
  }
}