{
  "contractName": "Migration",
  "abi": [
    {
      "inputs": [],
      "stateMutability": "nonpayable",
      "type": "constructor"
    },
    {
      "inputs": [],
      "name": "last_completed_migration",
      "outputs": [
        {
          "internalType": "uint256",
          "name": "",
          "type": "uint256"
        }
      ],
      "stateMutability": "view",
      "type": "function",
      "constant": true
    },
    {
      "inputs": [],
      "name": "owner",
      "outputs": [
        {
          "internalType": "address",
          "name": "",
          "type": "address"
        }
      ],
      "stateMutability": "view",
      "type": "function",
      "constant": true
    },
    {
      "inputs": [
        {
          "internalType": "uint256",
          "name": "_completed",
          "type": "uint256"
        }
      ],
      "name": "set_completed",
      "outputs": [],
      "stateMutability": "nonpayable",
      "type": "function"
    },
    {
      "inputs": [
        {
          "internalType": "address",
          "name": "new_addess",
          "type": "address"
        }
      ],
      "name": "upgrade",
      "outputs": [],
      "stateMutability": "nonpayable",
      "type": "function"
    }
  ],
  "bytecode": "0x608060405234801561000f575f80fd5b50335f806101000a81548173ffffffffffffffffffffffffffffffffffffffff021916908373ffffffffffffffffffffffffffffffffffffffff1602179055506103788061005c5f395ff3fe608060405234801561000f575f80fd5b506004361061004a575f3560e01c80630900f0101461004e578063445df0ac1461006a5780638da5cb5b14610088578063e787ee1b146100a6575b5f80fd5b61006860048036038101906100639190610269565b6100c2565b005b610072610185565b60405161007f91906102ac565b60405180910390f35b61009061018b565b60405161009d91906102d4565b60405180910390f35b6100c060048036038101906100bb9190610317565b6101ae565b005b5f8054906101000a900473ffffffffffffffffffffffffffffffffffffffff1673ffffffffffffffffffffffffffffffffffffffff163373ffffffffffffffffffffffffffffffffffffffff1603610182575f8190508073ffffffffffffffffffffffffffffffffffffffff1663e787ee1b6001546040518263ffffffff1660e01b815260040161015391906102ac565b5f604051808303815f87803b15801561016a575f80fd5b505af115801561017c573d5f803e3d5ffd5b50505050505b50565b60015481565b5f8054906101000a900473ffffffffffffffffffffffffffffffffffffffff1681565b5f8054906101000a900473ffffffffffffffffffffffffffffffffffffffff1673ffffffffffffffffffffffffffffffffffffffff163373ffffffffffffffffffffffffffffffffffffffff160361020857806001819055505b50565b5f80fd5b5f73ffffffffffffffffffffffffffffffffffffffff82169050919050565b5f6102388261020f565b9050919050565b6102488161022e565b8114610252575f80fd5b50565b5f813590506102638161023f565b92915050565b5f6020828403121561027e5761027d61020b565b5b5f61028b84828501610255565b91505092915050565b5f819050919050565b6102a681610294565b82525050565b5f6020820190506102bf5f83018461029d565b92915050565b6102ce8161022e565b82525050565b5f6020820190506102e75f8301846102c5565b92915050565b6102f681610294565b8114610300575f80fd5b50565b5f81359050610311816102ed565b92915050565b5f6020828403121561032c5761032b61020b565b5b5f61033984828501610303565b9150509291505056fea26469706673582212209047cef7711100b9bb4271c3d8d1212b8bf19bc3a8cae59b34cd63422f024aa664736f6c63430008160033",
  "immutableReferences": {},
  "source": "// SPDX-License-Identifier: MIT\npragma solidity ^0.8.6;\n\n\ncontract Migration {\n    address public owner ;\n    uint public last_completed_migration;\n\n    constructor() {\n        owner = msg.sender;\n    }\n\n    modifier restricted(){\n        if(msg.sender == owner) _;\n    }\n\n    function set_completed(uint _completed)public restricted {\n        last_completed_migration = _completed;\n    }\n\n    function upgrade(address new_addess) public restricted{\n        Migration upgraded = Migration(new_addess);\n        upgraded.set_completed(last_completed_migration);\n    }\n}",
  "sourcePath": "/workspace/defi-staking-app-starter/defi-staking-app-starter/src/contracts/Migration.sol",
  "compiler": {
    "name": "solc",
    "version": "0.8.22+commit.4fc1097e.Emscripten.clang"
  },
  "schemaVersion": "3.4.16",
  "updatedAt": "2023-11-05T12:55:46.857Z",
  "networkType": "ethereum",
  "devdoc": {
    "kind": "dev",
    "methods": {},
    "version": 1
  },
  "userdoc": {
    "kind": "user",
    "methods": {},
    "version": 1
  }
}